{
  "_format": "hh-sol-artifact-1",
  "contractName": "AssetGroupFactory",
  "sourceName": "contracts/AssetGroupFactory.sol",
  "abi": [
    {
      "inputs": [
        {
          "internalType": "address",
          "name": "_realEstateAddress",
          "type": "address"
        }
      ],
      "stateMutability": "nonpayable",
      "type": "constructor"
    },
    {
      "anonymous": false,
      "inputs": [
        {
          "indexed": true,
          "internalType": "address",
          "name": "groupAddress",
          "type": "address"
        },
        {
          "indexed": true,
          "internalType": "uint256",
          "name": "propertyId",
          "type": "uint256"
        },
        {
          "indexed": true,
          "internalType": "address",
          "name": "creator",
          "type": "address"
        }
      ],
      "name": "GroupCreated",
      "type": "event"
    },
    {
      "inputs": [
        {
          "internalType": "uint256",
          "name": "_propertyId",
          "type": "uint256"
        },
        {
          "internalType": "uint256",
          "name": "_targetShares",
          "type": "uint256"
        },
        {
          "internalType": "address[]",
          "name": "_members",
          "type": "address[]"
        },
        {
          "internalType": "uint256[]",
          "name": "_equityBps",
          "type": "uint256[]"
        }
      ],
      "name": "createGroup",
      "outputs": [
        {
          "internalType": "address",
          "name": "",
          "type": "address"
        }
      ],
      "stateMutability": "nonpayable",
      "type": "function"
    },
    {
      "inputs": [],
      "name": "realEstateAddress",
      "outputs": [
        {
          "internalType": "address",
          "name": "",
          "type": "address"
        }
      ],
      "stateMutability": "view",
      "type": "function"
    }
  ],
  "bytecode": "0x60a060405234801561001057600080fd5b5060405161150238038061150283398101604081905261002f91610040565b6001600160a01b0316608052610070565b60006020828403121561005257600080fd5b81516001600160a01b038116811461006957600080fd5b9392505050565b608051611471610091600039600081816078015261014501526114716000f3fe60806040523480156200001157600080fd5b50600436106200003a5760003560e01c8063537f327d146200003f5780636be453541462000072575b600080fd5b6200005662000050366004620002db565b6200009a565b6040516001600160a01b03909116815260200160405180910390f35b620000567f000000000000000000000000000000000000000000000000000000000000000081565b600080805b8351811015620000ea57838181518110620000be57620000be620003cc565b602002602001015182620000d39190620003f8565b915080620000e18162000414565b9150506200009f565b508061271014620001415760405162461bcd60e51b815260206004820152601760248201527f457175697479206d7573742073756d20746f2031303025000000000000000000604482015260640160405180910390fd5b60007f0000000000000000000000000000000000000000000000000000000000000000878787876040516200017690620001e9565b6200018695949392919062000430565b604051809103906000f080158015620001a3573d6000803e3d6000fd5b50604051909150339088906001600160a01b038416907f4e27732e2363ae561f0bcd372964cf3a2f5abf60307942abcf962373490e9f3190600090a49695505050505050565b610f6780620004d583390190565b634e487b7160e01b600052604160045260246000fd5b604051601f8201601f1916810167ffffffffffffffff81118282101715620002395762000239620001f7565b604052919050565b600067ffffffffffffffff8211156200025e576200025e620001f7565b5060051b60200190565b600082601f8301126200027a57600080fd5b81356020620002936200028d8362000241565b6200020d565b82815260059290921b84018101918181019086841115620002b357600080fd5b8286015b84811015620002d05780358352918301918301620002b7565b509695505050505050565b60008060008060808587031215620002f257600080fd5b843593506020808601359350604086013567ffffffffffffffff808211156200031a57600080fd5b818801915088601f8301126200032f57600080fd5b8135620003406200028d8262000241565b81815260059190911b8301840190848101908b8311156200036057600080fd5b938501935b82851015620003975784356001600160a01b0381168114620003875760008081fd5b8252938501939085019062000365565b965050506060880135925080831115620003b057600080fd5b5050620003c08782880162000268565b91505092959194509250565b634e487b7160e01b600052603260045260246000fd5b634e487b7160e01b600052601160045260246000fd5b808201808211156200040e576200040e620003e2565b92915050565b600060018201620004295762000429620003e2565b5060010190565b600060a0820160018060a01b0380891684526020888186015287604086015260a0606086015282875180855260c087019150828901945060005b818110156200048a5785518516835294830194918301916001016200046a565b5050858103608087015286518082529082019350915080860160005b83811015620004c457815185529382019390820190600101620004a6565b50929a995050505050505050505056fe60806040523480156200001157600080fd5b5060405162000f6738038062000f67833981016040819052620000349162000322565b60016000819055600a80546001600160a01b0388166001600160a01b03199182161790915560098054909116331790558490556002839055815162000081906004906020850190620001a6565b50600a54604051631ef6210160e31b8152600481018690526000916001600160a01b03169063f7b1080890602401600060405180830381865afa158015620000cd573d6000803e3d6000fd5b505050506040513d6000823e601f3d908101601f19168201604052620000f79190810190620004cf565b50509850505050505050505083816200011191906200060e565b60035560005b835181101562000199578281815181106200013657620001366200062e565b6020026020010151600560008684815181106200015757620001576200062e565b60200260200101516001600160a01b03166001600160a01b03168152602001908152602001600020819055508080620001909062000644565b91505062000117565b5050505050505062000660565b828054828255906000526020600020908101928215620001fe579160200282015b82811115620001fe57825182546001600160a01b0319166001600160a01b03909116178255602090920191600190910190620001c7565b506200020c92915062000210565b5090565b5b808211156200020c576000815560010162000211565b6001600160a01b03811681146200023d57600080fd5b50565b634e487b7160e01b600052604160045260246000fd5b604051601f8201601f191681016001600160401b038111828210171562000281576200028162000240565b604052919050565b60006001600160401b03821115620002a557620002a562000240565b5060051b60200190565b600082601f830112620002c157600080fd5b81516020620002da620002d48362000289565b62000256565b82815260059290921b84018101918181019086841115620002fa57600080fd5b8286015b84811015620003175780518352918301918301620002fe565b509695505050505050565b600080600080600060a086880312156200033b57600080fd5b8551620003488162000227565b602087810151604089015160608a01519398509096509450906001600160401b03808211156200037757600080fd5b818901915089601f8301126200038c57600080fd5b81516200039d620002d48262000289565b81815260059190911b8301840190848101908c831115620003bd57600080fd5b938501935b82851015620003e8578451620003d88162000227565b82529385019390850190620003c2565b60808c015190975094505050808311156200040257600080fd5b50506200041288828901620002af565b9150509295509295909350565b600082601f8301126200043157600080fd5b81516001600160401b038111156200044d576200044d62000240565b602062000463601f8301601f1916820162000256565b82815285828487010111156200047857600080fd5b60005b83811015620004985785810183015182820184015282016200047b565b506000928101909101919091529392505050565b80518015158114620004bd57600080fd5b919050565b8051620004bd8162000227565b60008060008060008060008060008060006101608c8e031215620004f257600080fd5b8b5160208d0151909b506001600160401b038111156200051157600080fd5b6200051f8e828f016200041f565b60408e0151909b5090506001600160401b038111156200053e57600080fd5b6200054c8e828f016200041f565b60608e0151909a5090506001600160401b038111156200056b57600080fd5b620005798e828f016200041f565b60808e015190995090506001600160401b038111156200059857600080fd5b620005a68e828f016200041f565b97505060a08c0151955060c08c0151945060e08c015193506101008c01519250620005d56101208d01620004ac565b9150620005e66101408d01620004c2565b90509295989b509295989b9093969950565b634e487b7160e01b600052601160045260246000fd5b8082028115828204841417620006285762000628620005f8565b92915050565b634e487b7160e01b600052603260045260246000fd5b600060018201620006595762000659620005f8565b5060010190565b6108f780620006706000396000f3fe6080604052600436106100e15760003560e01c80638d6eee671161007f578063d7bb99ba11610059578063d7bb99ba14610255578063e5864e8f1461025d578063e595dbc714610273578063ee7a3b8e146102a057600080fd5b80638d6eee67146101f1578063995c5e9d14610208578063c45a01551461023557600080fd5b80634f42402a116100bb5780634f42402a1461016457806358c272201461017a5780635daf08ca146101a457806361a6616c146101c457600080fd5b8063023f4147146100ed5780633c5e6c971461011657806348b764311461012c57600080fd5b366100e857005b600080fd5b3480156100f957600080fd5b5061010360085481565b6040519081526020015b60405180910390f35b34801561012257600080fd5b5061010360035481565b34801561013857600080fd5b50600a5461014c906001600160a01b031681565b6040516001600160a01b03909116815260200161010d565b34801561017057600080fd5b50610103600b5481565b34801561018657600080fd5b506007546101949060ff1681565b604051901515815260200161010d565b3480156101b057600080fd5b5061014c6101bf3660046107fd565b6102b6565b3480156101d057600080fd5b506101036101df366004610816565b60056020526000908152604090205481565b3480156101fd57600080fd5b506102066102e0565b005b34801561021457600080fd5b50610103610223366004610816565b60066020526000908152604090205481565b34801561024157600080fd5b5060095461014c906001600160a01b031681565b61020661051d565b34801561026957600080fd5b5061010360025481565b34801561027f57600080fd5b5061010361028e366004610816565b600c6020526000908152604090205481565b3480156102ac57600080fd5b5061010360015481565b600481815481106102c657600080fd5b6000918252602090912001546001600160a01b0316905081565b6102e86106d3565b60075460ff166103315760405162461bcd60e51b815260206004820152600f60248201526e105cdcd95d081b9bdd081bdddb9959608a1b60448201526064015b60405180910390fd5b600a546001546040516340bd2e2360e01b8152600481019190915247916001600160a01b0316906340bd2e2390602401600060405180830381600087803b15801561037b57600080fd5b505af192505050801561038c575060015b5047818111156103f4576103a0828261085c565b600b60008282546103b19190610875565b909155507fd0e841f234010ad7f57b7c09faffb2245cd240429c6e8fa3cd934a0a8bf58eb090506103e2838361085c565b60405190815260200160405180910390a15b33600090815260056020526040812054600b546127109161041491610888565b61041e919061089f565b336000908152600c60205260408120549192508183111561044657610443828461085c565b90505b600081116104855760405162461bcd60e51b815260206004820152600c60248201526b4e6f207969656c642064756560a01b6044820152606401610328565b336000908152600c6020526040812080548392906104a4908490610875565b9091555050604051339082156108fc029083906000818181858888f193505050501580156104d6573d6000803e3d6000fd5b5060405181815233907fc04825ba3f383b602255d2a13065a68e325c65c9e0ed5d031ea2b06f641873af9060200160405180910390a2505050505061051b6001600055565b565b6105256106d3565b60075460ff161561056c5760405162461bcd60e51b8152602060048201526011602482015270105b1c9958591e481c1d5c98da185cd959607a1b6044820152606401610328565b336000908152600560205260409020546105b75760405162461bcd60e51b815260206004820152600c60248201526b2737ba10309036b2b6b132b960a11b6044820152606401610328565b33600090815260056020526040812054600354612710916105d791610888565b6105e1919061089f565b336000908152600660205260409020549091508190610601903490610875565b11156106435760405162461bcd60e51b815260206004820152601160248201527027bb32b91031b7b73a3934b13aba34b7b760791b6044820152606401610328565b3360009081526006602052604081208054349290610662908490610875565b92505081905550346008600082825461067b9190610875565b909155505060405134815233907f4d154d4aae216bed6d0926db77c00df2b57c6b5ba4eee05775de20facede3a7b9060200160405180910390a2600354600854106106c8576106c86106fd565b5061051b6001600055565b6002600054036106f657604051633ee5aeb560e01b815260040160405180910390fd5b6002600055565b60075460ff16156107445760405162461bcd60e51b8152602060048201526011602482015270105b1c9958591e481c1d5c98da185cd959607a1b6044820152606401610328565b6007805460ff19166001908117909155600a546003549154600254604051635653ad2960e11b8152600481019290925260248201526001600160a01b039091169163aca75a52916044016000604051808303818588803b1580156107a757600080fd5b505af11580156107bb573d6000803e3d6000fd5b50505050507fd8c13b5e8b46bced4141d57d8cd1df187e95c1dd363c160bd94bf2f6bc7196ec6001546040516107f391815260200190565b60405180910390a1565b60006020828403121561080f57600080fd5b5035919050565b60006020828403121561082857600080fd5b81356001600160a01b038116811461083f57600080fd5b9392505050565b634e487b7160e01b600052601160045260246000fd5b8181038181111561086f5761086f610846565b92915050565b8082018082111561086f5761086f610846565b808202811582820484141761086f5761086f610846565b6000826108bc57634e487b7160e01b600052601260045260246000fd5b50049056fea264697066735822122087aeefef1a694aee303e778af986cdfae2703bc467eab5605a29df5d4ff6eef464736f6c63430008140033a264697066735822122029f6ed37a54dd1915463bc61b9d9ed12767d271dbea7fb8c509b74d6ed2e063564736f6c63430008140033",
  "linkReferences": {},
  "deployedLinkReferences": {}
}